:0400000056EF00F0C7
:08000800046ED8CF05F0E0CF33
:1000100006F00001E9CF0CF0EACF07F0E1CF08F0DD
:10002000E2CF09F0D9CF0AF0DACF0BF0F3CF12F01C
:10003000F4CF13F0FACF14F000C00EF001C00FF0AF
:1000400002C010F003C011F0F2AA2AEF00F0F2B4DF
:100050004BEF00F00EC000F00FC001F010C002F036
:1000600011C003F00CC0E9FF07C0EAFF078E08C00B
:10007000E1FF09C0E2FF0AC0D9FF0BC0DAFF12C0DE
:10008000F3FF13C0F4FF14C0FAFF045006C0E0FFF2
:1000900005C0D8FF10003C0ED76EB00ED66E202AD9
:1000A000212A222A232AF2942AEF00F0F86AD09E0D
:1000B000078E010E1C6E1D6E1E6E1F6E206A216A59
:1000C000226A236AC150C00B0F09C16E070EB46EBD
:1000D000166A176A820ED56E3C0ED76EB00ED66EBB
:1000E000F28AC00EF212926A896A936A8A6A946AE4
:1000F0008B6A956A8C6A2050020803E1D8901C36FE
:10010000206A1C50400802E1010E1C6E926A1CC05D
:1001100089FF2150050803E1D8901D36216A1D5042
:10012000000802E1010E1D6E936A1DC08AFF225075
:10013000070803E1D8901E36226A1E50000802E12B
:10014000010E1E6E946A1EC08BFF2350050803E14A
:10015000D8901F36236A1F50000802E1010E1F6E5F
:0A016000956A1FC08CFFC7D703008B
:020000040030CA
:0E00000000C11E1E000781000FC00FE00F4060
:00000001FF
;PIC18F4620
;CRC=9ED7  CREATED="14-may.-19 22:07"
